{
  "contractName": "Project",
  "abi": [
    {
      "inputs": [
        {
          "internalType": "address payable",
          "name": "projectStarter",
          "type": "address"
        },
        {
          "internalType": "string",
          "name": "projectTitle",
          "type": "string"
        },
        {
          "internalType": "string",
          "name": "projectDesc",
          "type": "string"
        },
        {
          "internalType": "uint256",
          "name": "fundRaisingDeadline",
          "type": "uint256"
        },
        {
          "internalType": "uint256",
          "name": "goalAmount",
          "type": "uint256"
        }
      ],
      "payable": false,
      "stateMutability": "nonpayable",
      "type": "constructor"
    },
    {
      "anonymous": false,
      "inputs": [
        {
          "indexed": false,
          "internalType": "address",
          "name": "recipient",
          "type": "address"
        }
      ],
      "name": "CreatorPaid",
      "type": "event"
    },
    {
      "anonymous": false,
      "inputs": [
        {
          "indexed": false,
          "internalType": "address",
          "name": "contributor",
          "type": "address"
        },
        {
          "indexed": false,
          "internalType": "uint256",
          "name": "amount",
          "type": "uint256"
        },
        {
          "indexed": false,
          "internalType": "uint256",
          "name": "currentTotal",
          "type": "uint256"
        }
      ],
      "name": "FundingReceived",
      "type": "event"
    },
    {
      "constant": true,
      "inputs": [],
      "name": "amountGoal",
      "outputs": [
        {
          "internalType": "uint256",
          "name": "",
          "type": "uint256"
        }
      ],
      "payable": false,
      "stateMutability": "view",
      "type": "function"
    },
    {
      "constant": true,
      "inputs": [],
      "name": "completeAt",
      "outputs": [
        {
          "internalType": "uint256",
          "name": "",
          "type": "uint256"
        }
      ],
      "payable": false,
      "stateMutability": "view",
      "type": "function"
    },
    {
      "constant": true,
      "inputs": [
        {
          "internalType": "address",
          "name": "",
          "type": "address"
        }
      ],
      "name": "contributions",
      "outputs": [
        {
          "internalType": "uint256",
          "name": "",
          "type": "uint256"
        }
      ],
      "payable": false,
      "stateMutability": "view",
      "type": "function"
    },
    {
      "constant": true,
      "inputs": [],
      "name": "creator",
      "outputs": [
        {
          "internalType": "address payable",
          "name": "",
          "type": "address"
        }
      ],
      "payable": false,
      "stateMutability": "view",
      "type": "function"
    },
    {
      "constant": true,
      "inputs": [],
      "name": "currentBalance",
      "outputs": [
        {
          "internalType": "uint256",
          "name": "",
          "type": "uint256"
        }
      ],
      "payable": false,
      "stateMutability": "view",
      "type": "function"
    },
    {
      "constant": true,
      "inputs": [],
      "name": "description",
      "outputs": [
        {
          "internalType": "string",
          "name": "",
          "type": "string"
        }
      ],
      "payable": false,
      "stateMutability": "view",
      "type": "function"
    },
    {
      "constant": true,
      "inputs": [],
      "name": "raiseBy",
      "outputs": [
        {
          "internalType": "uint256",
          "name": "",
          "type": "uint256"
        }
      ],
      "payable": false,
      "stateMutability": "view",
      "type": "function"
    },
    {
      "constant": true,
      "inputs": [],
      "name": "state",
      "outputs": [
        {
          "internalType": "enum Project.State",
          "name": "",
          "type": "uint8"
        }
      ],
      "payable": false,
      "stateMutability": "view",
      "type": "function"
    },
    {
      "constant": true,
      "inputs": [],
      "name": "title",
      "outputs": [
        {
          "internalType": "string",
          "name": "",
          "type": "string"
        }
      ],
      "payable": false,
      "stateMutability": "view",
      "type": "function"
    },
    {
      "constant": false,
      "inputs": [],
      "name": "contribute",
      "outputs": [],
      "payable": true,
      "stateMutability": "payable",
      "type": "function"
    },
    {
      "constant": false,
      "inputs": [],
      "name": "checkIfFundingCompleteOrExpired",
      "outputs": [],
      "payable": false,
      "stateMutability": "nonpayable",
      "type": "function"
    },
    {
      "constant": false,
      "inputs": [],
      "name": "getRefund",
      "outputs": [
        {
          "internalType": "bool",
          "name": "",
          "type": "bool"
        }
      ],
      "payable": false,
      "stateMutability": "nonpayable",
      "type": "function"
    },
    {
      "constant": true,
      "inputs": [],
      "name": "getDetails",
      "outputs": [
        {
          "internalType": "address payable",
          "name": "projectStarter",
          "type": "address"
        },
        {
          "internalType": "string",
          "name": "projectTitle",
          "type": "string"
        },
        {
          "internalType": "string",
          "name": "projectDesc",
          "type": "string"
        },
        {
          "internalType": "uint256",
          "name": "deadline",
          "type": "uint256"
        },
        {
          "internalType": "enum Project.State",
          "name": "currentState",
          "type": "uint8"
        },
        {
          "internalType": "uint256",
          "name": "currentAmount",
          "type": "uint256"
        },
        {
          "internalType": "uint256",
          "name": "goalAmount",
          "type": "uint256"
        }
      ],
      "payable": false,
      "stateMutability": "view",
      "type": "function"
    }
  ],
  "bytecode": "0x60806040526000600760006101000a81548160ff021916908360028111156200002457fe5b02179055503480156200003657600080fd5b50604051620012c7380380620012c7833981810160405260a08110156200005c57600080fd5b8101908080519060200190929190805160405193929190846401000000008211156200008757600080fd5b838201915060208201858111156200009e57600080fd5b8251866001820283011164010000000082111715620000bc57600080fd5b8083526020830192505050908051906020019080838360005b83811015620000f2578082015181840152602081019050620000d5565b50505050905090810190601f168015620001205780820380516001836020036101000a031916815260200191505b50604052602001805160405193929190846401000000008211156200014457600080fd5b838201915060208201858111156200015b57600080fd5b82518660018202830111640100000000821117156200017957600080fd5b8083526020830192505050908051906020019080838360005b83811015620001af57808201518184015260208101905062000192565b50505050905090810190601f168015620001dd5780820380516001836020036101000a031916815260200191505b506040526020018051906020019092919080519060200190929190505050846000806101000a81548173ffffffffffffffffffffffffffffffffffffffff021916908373ffffffffffffffffffffffffffffffffffffffff1602179055508360059080519060200190620002539291906200028e565b5082600690805190602001906200026c9291906200028e565b508060018190555081600481905550600060038190555050505050506200033d565b828054600181600116156101000203166002900490600052602060002090601f016020900481019282601f10620002d157805160ff191683800117855562000302565b8280016001018555821562000302579182015b8281111562000301578251825591602001919060010190620002e4565b5b50905062000311919062000315565b5090565b6200033a91905b80821115620003365760008160009055506001016200031c565b5090565b90565b610f7a806200034d6000396000f3fe6080604052600436106100c25760003560e01c80637284e4161161007f578063c19d93fb11610059578063c19d93fb1461036a578063ce845d1d146103a3578063d7bb99ba146103ce578063fbbf93a0146103d8576100c2565b80637284e4161461029457806386f3258614610324578063b2d5ae441461033b576100c2565b806302d05d3f146100c75780630785001c1461011e57806337f944cc1461014957806342e94c90146101745780634a79d50c146101d95780634c4cea5a14610269575b600080fd5b3480156100d357600080fd5b506100dc610531565b604051808273ffffffffffffffffffffffffffffffffffffffff1673ffffffffffffffffffffffffffffffffffffffff16815260200191505060405180910390f35b34801561012a57600080fd5b50610133610556565b6040518082815260200191505060405180910390f35b34801561015557600080fd5b5061015e61055c565b6040518082815260200191505060405180910390f35b34801561018057600080fd5b506101c36004803603602081101561019757600080fd5b81019080803573ffffffffffffffffffffffffffffffffffffffff169060200190929190505050610562565b6040518082815260200191505060405180910390f35b3480156101e557600080fd5b506101ee61057a565b6040518080602001828103825283818151815260200191508051906020019080838360005b8381101561022e578082015181840152602081019050610213565b50505050905090810190601f16801561025b5780820380516001836020036101000a031916815260200191505b509250505060405180910390f35b34801561027557600080fd5b5061027e610618565b6040518082815260200191505060405180910390f35b3480156102a057600080fd5b506102a961061e565b6040518080602001828103825283818151815260200191508051906020019080838360005b838110156102e95780820151818401526020810190506102ce565b50505050905090810190601f1680156103165780820380516001836020036101000a031916815260200191505b509250505060405180910390f35b34801561033057600080fd5b506103396106bc565b005b34801561034757600080fd5b50610350610732565b604051808215151515815260200191505060405180910390f35b34801561037657600080fd5b5061037f6108e8565b6040518082600281111561038f57fe5b60ff16815260200191505060405180910390f35b3480156103af57600080fd5b506103b86108fb565b6040518082815260200191505060405180910390f35b6103d6610901565b005b3480156103e457600080fd5b506103ed610abe565b604051808873ffffffffffffffffffffffffffffffffffffffff1673ffffffffffffffffffffffffffffffffffffffff168152602001806020018060200187815260200186600281111561043d57fe5b60ff168152602001858152602001848152602001838103835289818151815260200191508051906020019080838360005b8381101561048957808201518184015260208101905061046e565b50505050905090810190601f1680156104b65780820380516001836020036101000a031916815260200191505b50838103825288818151815260200191508051906020019080838360005b838110156104ef5780820151818401526020810190506104d4565b50505050905090810190601f16801561051c5780820380516001836020036101000a031916815260200191505b50995050505050505050505060405180910390f35b6000809054906101000a900473ffffffffffffffffffffffffffffffffffffffff1681565b60015481565b60045481565b60086020528060005260406000206000915090505481565b60058054600181600116156101000203166002900480601f0160208091040260200160405190810160405280929190818152602001828054600181600116156101000203166002900480156106105780601f106105e557610100808354040283529160200191610610565b820191906000526020600020905b8154815290600101906020018083116105f357829003601f168201915b505050505081565b60025481565b60068054600181600116156101000203166002900480601f0160208091040260200160405190810160405280929190818152602001828054600181600116156101000203166002900480156106b45780601f10610689576101008083540402835291602001916106b4565b820191906000526020600020905b81548152906001019060200180831161069757829003601f168201915b505050505081565b600154600354106106f9576002600760006101000a81548160ff021916908360028111156106e657fe5b02179055506106f3610c51565b50610729565b600454421115610728576001600760006101000a81548160ff0219169083600281111561072257fe5b02179055505b5b42600281905550565b6000600180600281111561074257fe5b600760009054906101000a900460ff16600281111561075d57fe5b1461076757600080fd5b6000600860003373ffffffffffffffffffffffffffffffffffffffff1673ffffffffffffffffffffffffffffffffffffffff16815260200190815260200160002054116107b357600080fd5b6000600860003373ffffffffffffffffffffffffffffffffffffffff1673ffffffffffffffffffffffffffffffffffffffff1681526020019081526020016000205490506000600860003373ffffffffffffffffffffffffffffffffffffffff1673ffffffffffffffffffffffffffffffffffffffff168152602001908152602001600020819055503373ffffffffffffffffffffffffffffffffffffffff166108fc829081150290604051600060405180830381858888f193505050506108c35780600860003373ffffffffffffffffffffffffffffffffffffffff1673ffffffffffffffffffffffffffffffffffffffff1681526020019081526020016000208190555060009250506108e4565b6108d881600354610db390919063ffffffff16565b60038190555060019250505b5090565b600760009054906101000a900460ff1681565b60035481565b600080600281111561090f57fe5b600760009054906101000a900460ff16600281111561092a57fe5b1461093457600080fd5b6000809054906101000a900473ffffffffffffffffffffffffffffffffffffffff1673ffffffffffffffffffffffffffffffffffffffff163373ffffffffffffffffffffffffffffffffffffffff16141561098e57600080fd5b6109e034600860003373ffffffffffffffffffffffffffffffffffffffff1673ffffffffffffffffffffffffffffffffffffffff16815260200190815260200160002054610dfd90919063ffffffff16565b600860003373ffffffffffffffffffffffffffffffffffffffff1673ffffffffffffffffffffffffffffffffffffffff16815260200190815260200160002081905550610a3834600354610dfd90919063ffffffff16565b6003819055507f5cdc4ab8d637538ead6cc1904d4160343656c8c82bd266635cfd31ac008fffe03334600354604051808473ffffffffffffffffffffffffffffffffffffffff1673ffffffffffffffffffffffffffffffffffffffff168152602001838152602001828152602001935050505060405180910390a1610abb6106bc565b50565b60006060806000806000806000809054906101000a900473ffffffffffffffffffffffffffffffffffffffff16965060058054600181600116156101000203166002900480601f016020809104026020016040519081016040528092919081815260200182805460018160011615610100020316600290048015610b835780601f10610b5857610100808354040283529160200191610b83565b820191906000526020600020905b815481529060010190602001808311610b6657829003601f168201915b5050505050955060068054600181600116156101000203166002900480601f016020809104026020016040519081016040528092919081815260200182805460018160011615610100020316600290048015610c205780601f10610bf557610100808354040283529160200191610c20565b820191906000526020600020905b815481529060010190602001808311610c0357829003601f168201915b505050505094506004549350600760009054906101000a900460ff1692506003549150600154905090919293949596565b60006002806002811115610c6157fe5b600760009054906101000a900460ff166002811115610c7c57fe5b14610c8657600080fd5b6000600354905060006003819055506000809054906101000a900473ffffffffffffffffffffffffffffffffffffffff1673ffffffffffffffffffffffffffffffffffffffff166108fc829081150290604051600060405180830381858888f1935050505015610d7e577f2f256415efc8561af8db667cb242964b19be7380f379ccdafaa0e54a6f6b70696000809054906101000a900473ffffffffffffffffffffffffffffffffffffffff16604051808273ffffffffffffffffffffffffffffffffffffffff1673ffffffffffffffffffffffffffffffffffffffff16815260200191505060405180910390a16001925050610daf565b806003819055506002600760006101000a81548160ff02191690836002811115610da457fe5b021790555060009250505b5090565b6000610df583836040518060400160405280601e81526020017f536166654d6174683a207375627472616374696f6e206f766572666c6f770000815250610e85565b905092915050565b600080828401905083811015610e7b576040517f08c379a000000000000000000000000000000000000000000000000000000000815260040180806020018281038252601b8152602001807f536166654d6174683a206164646974696f6e206f766572666c6f77000000000081525060200191505060405180910390fd5b8091505092915050565b6000838311158290610f32576040517f08c379a00000000000000000000000000000000000000000000000000000000081526004018080602001828103825283818151815260200191508051906020019080838360005b83811015610ef7578082015181840152602081019050610edc565b50505050905090810190601f168015610f245780820380516001836020036101000a031916815260200191505b509250505060405180910390fd5b506000838503905080915050939250505056fea265627a7a7231582098e2ae3077f00988096e716343b5e425a3e7061da6a413a76bf1feef9904ee5e64736f6c63430005100032",
  "source": "pragma solidity >=0.4.21 <0.6.0;\n\nimport \"@openzeppelin/contracts/math/SafeMath.sol\";\n\ncontract Project {\n    using SafeMath for uint256;\n\n    // Data structures\n    enum State {\n        Fundraising,\n        Expired,\n        Successful\n    }\n\n    // State variables\n    address payable public creator;\n    uint public amountGoal; // required to reach at least this much, else everyone gets refund\n    uint public completeAt;\n    uint256 public currentBalance;\n    uint public raiseBy;\n    string public title;\n    string public description;\n    State public state = State.Fundraising; // initialize on create\n    mapping(address => uint) public contributions;\n\n    // Event that will be emitted whenever funding will be received\n    event FundingReceived(address contributor, uint amount, uint currentTotal);\n    // Event that will be emitted whenever the project starter has received the funds\n    event CreatorPaid(address recipient);\n\n    // Modifier to check current state\n    modifier inState(State _state) {\n        require(state == _state);\n        _;\n    }\n\n    // Modifier to check if the function caller is the project creator\n    modifier isCreator() {\n        require(msg.sender == creator);\n        _;\n    }\n\n    constructor\n    (\n        address payable projectStarter,\n        string memory projectTitle,\n        string memory projectDesc,\n        uint fundRaisingDeadline,\n        uint goalAmount\n    ) public {\n        creator = projectStarter;\n        title = projectTitle;\n        description = projectDesc;\n        amountGoal = goalAmount;\n        raiseBy = fundRaisingDeadline;\n        currentBalance = 0;\n    }\n\n    /** @dev Function to fund a certain project.\n      */\n    function contribute() external inState(State.Fundraising) payable {\n        require(msg.sender != creator);\n        contributions[msg.sender] = contributions[msg.sender].add(msg.value);\n        currentBalance = currentBalance.add(msg.value);\n        emit FundingReceived(msg.sender, msg.value, currentBalance);\n        checkIfFundingCompleteOrExpired();\n    }\n\n    /** @dev Function to change the project state depending on conditions.\n      */\n    function checkIfFundingCompleteOrExpired() public {\n        if (currentBalance >= amountGoal) {\n            state = State.Successful;\n            payOut();\n        } else if (now > raiseBy) {\n            state = State.Expired;\n        }\n        completeAt = now;\n    }\n\n    /** @dev Function to give the received funds to project starter.\n      */\n    function payOut() internal inState(State.Successful) returns (bool) {\n        uint256 totalRaised = currentBalance;\n        currentBalance = 0;\n\n        if (creator.send(totalRaised)) {\n            emit CreatorPaid(creator);\n            return true;\n        } else {\n            currentBalance = totalRaised;\n            state = State.Successful;\n        }\n\n        return false;\n    }\n\n    /** @dev Function to retrieve donated amount when a project expires.\n      */\n    function getRefund() public inState(State.Expired) returns (bool) {\n        require(contributions[msg.sender] > 0);\n\n        uint amountToRefund = contributions[msg.sender];\n        contributions[msg.sender] = 0;\n\n        if (!msg.sender.send(amountToRefund)) {\n            contributions[msg.sender] = amountToRefund;\n            return false;\n        } else {\n            currentBalance = currentBalance.sub(amountToRefund);\n        }\n\n        return true;\n    }\n\n    /** @dev Function to get specific information about the project.\n      * @return Returns all the project's details\n      */\n    function getDetails() public view returns\n    (\n        address payable projectStarter,\n        string memory projectTitle,\n        string memory projectDesc,\n        uint256 deadline,\n        State currentState,\n        uint256 currentAmount,\n        uint256 goalAmount\n    ) {\n        projectStarter = creator;\n        projectTitle = title;\n        projectDesc = description;\n        deadline = raiseBy;\n        currentState = state;\n        currentAmount = currentBalance;\n        goalAmount = amountGoal;\n    }\n}",
  "sourcePath": "/Users/danielvdm/go/src/github.com/harmony-one/dapp-demo-crowdfunding/contracts/Project.sol",
  "compiler": {
    "name": "solc",
    "version": "0.5.16+commit.9c3226ce.Emscripten.clang"
  },
  "schemaVersion": "3.2.0",
  "updatedAt": "2020-07-02T08:59:10.847Z",
  "devdoc": {
    "methods": {
      "checkIfFundingCompleteOrExpired()": {
        "details": "Function to change the project state depending on conditions."
      },
      "contribute()": {
        "details": "Function to fund a certain project."
      },
      "getDetails()": {
        "details": "Function to get specific information about the project.",
        "return": "Returns all the project's details"
      },
      "getRefund()": {
        "details": "Function to retrieve donated amount when a project expires."
      }
    }
  },
  "userdoc": {
    "methods": {}
  }
}